:100000000EC026C0F2C024C023C0A5C021C020C09D
:100010001FC01EC01DC01CC01BC01AC019C01124A7
:100020001FBECFEDCDBF10E0A0E6B0E0E2EFF6E0FE
:1000300002C005900D92AC36B107D9F720E0ACE6CE
:10004000B0E001C01D92A638B207E1F7D8D04FC387
:10005000D7CF3FB7F8948091820090918300A09110
:100060008400B091850022B708B601FE05C02F3F7D
:1000700019F00196A11DB11D3FBFBA2FA92F982FCE
:100080008827BC01CD01620F711D811D911D43E0C8
:10009000660F771F881F991F4A95D1F70895CF9251
:1000A000DF92EF92FF92CF93DF936B017C01D1DF60
:1000B000EB01CFDF6C1B7D0B683E7340A0F0C114D9
:1000C000D104E104F10439F4DF91CF91FF90EF9076
:1000D000DF90CF90089581E0C81AD108E108F108B7
:1000E000C851DC4FE6CFC114D104E104F10409F793
:1000F000EBCF2FB7F89460917E0070917F008091D4
:100100008000909181002FBF0895CF93DF93ECE69C
:10011000F0E0A7E6B0E020E730E041E050E0619198
:100120008D91EA0102C0CC0FDD1F8A95E2F7CE0166
:1001300098B3662341F0892B88BB2E173F0779F7C8
:10014000DF91CF91089580958923F6CF86B382956C
:10015000817090E008951F920F920FB60F921124B4
:100160002F933F938F939F93AF93BF9380917E0084
:1001700090917F00A0918000B091810030917D002E
:1001800026E0230F2D3768F129E8230F0396A11DE0
:10019000B11D20937D0080937E0090937F00A093FB
:1001A0008000B09381008091820090918300A091A3
:1001B0008400B09185000196A11DB11D809382003D
:1001C00090938300A0938400B0938500BF91AF917A
:1001D0009F918F913F912F910F900FBE0F901F9085
:1001E00018950296A11DB11DD4CF1F920F920FB684
:1001F0000F9211240F900FBE0F901F90189583E05F
:100200008ABD83BF789489B7826089BF80E48CBD42
:100210008FEF8DBD87EC80BF86E886B987B38F608E
:1002200087BB8FB7F894BC98C49A8FBF0BE010E0DF
:10023000D1E0C1E09AEFD92E24E6C22E37E0E32EBA
:10024000F12C57DF8090790090907A00A0907B008D
:10025000B0907C00681979098A099B09693C71058D
:100260008105910508F46AC071DF20917800892B1F
:1002700009F0C8C021110BC0C09378003ADF609329
:10028000790070937A0080937B0090937C0080903B
:10029000790090907A00A0907B00B0907C0081144F
:1002A0009104A104B10409F449C023DF6819790954
:1002B0008A099B09693E73408105910508F43EC097
:1002C00010926C0010926D0010926E0010926F00F0
:1002D000109262001ADF68EC70E080E090E0DFDEF0
:1002E0008BB780628BBFAC9A379885B7877E806169
:1002F00085BF85B7806285BF78948895F894AC985F
:1003000085B78F7D85BF379A789484E0B82E6AEFE1
:1003100070E080E090E0C3DE19DF892B09F7BA9422
:10032000B110F5CF1092790010927A0010927B00F4
:1003300010927C00C0936200C093770080916200AD
:10034000882309F47ECFD5DE8090730090907400EE
:10035000A0907500B0907600AB01BC014819590916
:100360006A097B098091610090E0B0E0A0E0481745
:1003700059076A077B0708F443C0BBDE609373002C
:10038000709374008093750090937600D092610012
:10039000809172008A30B9F4809170008F5F8093F1
:1003A0007000893070F016D1B7017AD18F5F9091CB
:1003B00060008917C1F38093600010927000109262
:1003C00071008091600010926C0010926D0010928C
:1003D0006E0010926F00982F9B7F933021F0853034
:1003E00011F0893019F4C09261008150823009F413
:1003F00069C0B0F5882309F44AC0813009F450C0BF
:1004000084DE1FCF1092790010927A0010927B0048
:1004100010927C00222309F180917700811112C093
:100420001092730010927400109275001092760072
:100430008091720090E00196B80132D180937200F1
:10044000109271001092770054DE609379007093DF
:100450007A0080937B0090937C00109278006ECF9E
:10046000863009F441C0883009F44FC0843041F629
:100470008091710090E001968170992780937100BE
:10048000892B69F5C0936F00C0936C00B9CFC093FE
:100490006C00C0936D00C0936E00C0936F00B0CF2E
:1004A00090917100292F282720937100913009F431
:1004B000A7CF80936C0080936D0080936E00809333
:1004C0006F009ECFE0917100F0E03196E170FF2760
:1004D000E0937100E459FF4FD083D28391CFC09352
:1004E0006E00C0936D008CCF8091710090E00196FA
:1004F00083709927809371008823F9F0813099F0F7
:100500008230C1F483E090E010C08091710090E0EF
:1005100001968370992780937100882359F0813068
:1005200089F3823051F482E090E084599F4FFC01BE
:10053000D08366CF81E090E0F8CF90E080E0F5CF07
:100540008F929F92AF92BF92CF92DF92EF92FF92E3
:10055000CF93DF93EC01688179818A819B8161155A
:1005600071058105910521F464E279ED8BE597E051
:100570002DE133EF41E050E055D049015A0127EA1F
:1005800031E440E050E035D06B017C012CEE34EFDB
:100590004FEF5FEFC501B4012CD0DC01CB018C0D16
:1005A0009D1DAE1DBF1DB7FF03C00197A109B04837
:1005B00088839983AA83BB839F77DF91CF91FF9034
:1005C000EF90DF90CF90BF90AF909F908F90089565
:1005D000B7DF089583E690E0B3DF0895B0E0A0E0D0
:1005E0008093630090936400A0936500B0936600CD
:1005F0000895EE27FF27AA27BB2708C0A20FB31F25
:10060000E41FF51F220F331F441F551F9695879532
:100610007795679598F37040A9F7009799F7BD0112
:10062000CF010895052E97FB16F400940FD057FDC7
:1006300005D014D007FC02D046F408C05095409570
:10064000309521953F4F4F4F5F4F0895909580957E
:10065000709561957F4F8F4F9F4F0895A1E21A2E9D
:10066000AA1BBB1BFD010DC0AA1FBB1FEE1FFF1F56
:10067000A217B307E407F50720F0A21BB30BE40BA6
:10068000F50B661F771F881F991F1A9469F76095ED
:100690007095809590959B01AC01BD01CF010895A7
:1006A00097FB072E16F4009406D077FD08D00BD0E8
:1006B00007FC05D03EF4909581959F4F0895709565
:1006C00061957F4F0895AA1BBB1B51E107C0AA1F6C
:1006D000BB1FA617B70710F0A61BB70B881F991FE3
:1006E0005A95A9F780959095BC01CD010895F8948D
:0206F000FFCF3A
:0C06F20001FA01010000000001030200F9
:00000001FF
