:100000001AC032C067C130C02FC01AC12DC02CC069
:100010002BC02AC029C028C027C026C025C0000088
:100020000000380000000000370002020202020255
:1000300001020408102011241FBECFEDCDBF10E037
:10004000A0E6B0E0E8ECF7E002C005900D92A03722
:10005000B107D9F720E0A0E7B0E001C01D92AD38AC
:10006000B207E1F741D1AEC3CBCF3FB7F89480914F
:10007000890090918A00A0918B00B0918C0022B7EA
:1000800008B601FE05C02F3F19F00196A11DB11D54
:100090003FBFBA2FA92F982F8827BC01CD01620F2F
:1000A000711D811D911D43E0660F771F881F991FE9
:1000B0004A95D1F70895CF92DF92EF92FF92CF93B6
:1000C000DF936B017C01D1DFEB01CFDF6C1B7D0B7C
:1000D000683E7340A0F0C114D104E104F10439F486
:1000E000DF91CF91FF90EF90DF90CF90089581E066
:1000F000C81AD108E108F108C851DC4FE6CFC11495
:10010000D104E104F10409F7EBCF2FB7F894609123
:1001100085007091860080918700909188002FBFA4
:100120000895CF93DF9380917000E0917800F0E024
:10013000E459FF4F9081981710F51092700080914C
:100140007000811123C0E1E7F0E0A8E6B0E025E708
:1001500030E041E050E061918D91EA0102C0CC0FA6
:10016000DD1F8A95E2F7CE0198B3662361F0892BF3
:1001700088BB2E173F0779F7DF91CF9108958F5FE6
:1001800080937000DCCF80958923F2CFE8E6F0E021
:1001900041E050E028B38191BA0102C0660F771F99
:1001A0008A95E2F7CB018095822388BB70E0EC361C
:1001B000F70781F7E1CFE1E7F0E0108211821282C8
:1001C00013820895CF93DF93C0917700D0E02196FA
:1001D000C170DD27C0937700EEDFCF58DF4F81E09D
:1001E00088838A83DF91CF910895CF93DF93C09165
:1001F0007700D0E02196C370DD27C0937700DBDF66
:10020000E4E7F0E0EC1BFD0B81E08083DF91CF9110
:100210000895CF93DF93C0917700D0E02196C3700B
:10022000DD27C0937700C7DFCF58DF4F81E0888399
:10023000DF91CF91089586B38295817090E0089503
:100240001F920F920FB60F9211242F933F938F930B
:100250009F93AF93BF938091850090918600A0916A
:100260008700B09188003091840026E0230F2D375D
:1002700068F129E8230F0396A11DB11D2093840086
:100280008093850090938600A0938700B0938800A8
:100290008091890090918A00A0918B00B0918C0090
:1002A0000196A11DB11D8093890090938A00A093AF
:1002B0008B00B0938C00BF91AF919F918F913F9134
:1002C0002F910F900FBE0F901F9018950296A11DB1
:1002D000B11DD4CF1F920F920FB60F9211240F9021
:1002E0000FBE0F901F90189583E08ABD83BF78944E
:1002F00089B7826089BF80E48CBD8FEF8DBD87ECAC
:1003000080BF86E886B9A8E6B0E02CE630E08D91A3
:1003100087FF0DC08F7709F4B2C0813009F4B1C0F6
:10032000823009F4B0C0833009F4AFC08FEF90E0A1
:10033000FC01E05DFF4F4491865D9F4FFC0184917D
:10034000882399F090E0880F991FFC01EC5DFF4F26
:10035000C591D491FC01E25EFF4F859194918FB7D6
:10036000F894E881E42BE8838FBF2A173B0709F054
:10037000CECF8FB7F894BC98C49A8FBF89E0E82E8F
:10038000F12CC1E09AEFC92ED12C04E610E027E051
:10039000A22EB12CBADE4090800050908100609077
:1003A0008200709083006419750986099709693C79
:1003B00071058105910508F4A1C03DDF20917F0002
:1003C000892B09F064C021110BC0C0937F009DDE12
:1003D00060938000709381008093820090938300EB
:1003E0004090800050908100609082007090830067
:1003F000411451046104710409F480C086DE64195B
:10040000750986099709693E73408105910508F4CD
:1004100075C0D1DE1092630084DE68EC70E080E08D
:1004200090E049DE8BB780628BBFAC9A379885B776
:10043000877E806185BF85B7806285BF7894889507
:10044000F894AC9885B78F7D85BF379A7894D4E0BF
:100450006AEF70E080E090E02EDEEDDE892B11F790
:10046000D150B1F71092800010928100109282005A
:1004700010928300C0936300C0937E003FC085E06C
:1004800056CF82E054CF84E052CF83E050CF109219
:10049000800010928100109282001092830022232B
:1004A00059F180917E0081111CC010927A00109247
:1004B0007B0010927C0010927D008091790090E08A
:1004C0000196B70158D180937900892B41F480912E
:1004D000780090E0019683709927809378001092BD
:1004E000770010927E0011DE60938000709381008F
:1004F000809382009093830010927F00809163002C
:10050000882309F447CF01DE40907A0050907B00A9
:1005100060907C0070907D00AB01BC0144195509CE
:10052000660977098091610090916200B0E0A0E0D7
:10053000481759076A077B0708F444C0E6DD609353
:100540007A0070937B0080937C0090937D00D09222
:100550006200C0926100E0917900E830E9F4809196
:1005600075009091760001969093760080937500C7
:10057000099780F09AD0B501FED08F5F909160000E
:100580008917C1F380936000109276001092750075
:1005900010927700E0916000E830A0F4F0E0EE52B5
:1005A000FD4F099407C010C028C023C02CC027C02D
:1005B00030C02BC0C0937100C0937200C093730011
:1005C000C0937400AEDDE6CE80917700882331F0D1
:1005D0008130C1F7F0DD10927700F4CFC093710045
:1005E000C0937200C0937300C0937400C0937700EF
:1005F000E9CF1093620000936100E4DDE3CF109334
:1006000062000093610005DEDDCF1093620000936D
:100610006100EBDDD7CF8F929F92AF92BF92CF92C6
:10062000DF92EF92FF92CF93DF93EC0168817981A3
:100630008A819B81611571058105910521F464E230
:1006400079ED8BE597E02DE133EF41E050E055D0B7
:1006500049015A0127EA31E440E050E035D06B010E
:100660007C012CEE34EF4FEF5FEFC501B4012CD0CD
:10067000DC01CB018C0D9D1DAE1DBF1DB7FF03C05E
:100680000197A109B04888839983AA83BB839F7788
:10069000DF91CF91FF90EF90DF90CF90BF90AF9020
:1006A0009F908F900895B7DF089584E690E0B3DFC0
:1006B0000895B0E0A0E08093640090936500A0935B
:1006C0006600B09367000895EE27FF27AA27BB278F
:1006D00008C0A20FB31FE41FF51F220F331F441FD2
:1006E000551F969587957795679598F37040A9F76C
:1006F000009799F7BD01CF010895052E97FB16F4D9
:1007000000940FD057FD05D014D007FC02D046F45A
:1007100008C050954095309521953F4F4F4F5F4F02
:10072000089590958095709561957F4F8F4F9F4F5D
:100730000895A1E21A2EAA1BBB1BFD010DC0AA1F22
:10074000BB1FEE1FFF1FA217B307E407F50720F03A
:10075000A21BB30BE40BF50B661F771F881F991FB5
:100760001A9469F760957095809590959B01AC01FE
:10077000BD01CF01089597FB072E16F4009406D013
:1007800077FD08D00BD007FC05D03EF490958195FD
:100790009F4F0895709561957F4F0895AA1BBB1BCD
:1007A00051E107C0AA1FBB1FA617B70710F0A61B71
:1007B000B70B881F991F5A95A9F780959095BC0192
:0807C000CD010895F894FFCF6C
:1007C80001FA00010100000000010302000A32FAE8
:00000001FF
